:020000040000fa
:080000000002040000000000f2
:020000040000fa
:04000800ba04000036
:020000040000fa
:04000c00ba04000032
:020000040000fa
:04001000ba0400002e
:020000040000fa
:04001400ba0400002a
:020000040000fa
:04001800ba04000026
:020000040000fa
:04001c00ba04000022
:020000040000fa
:04002000ba0400001e
:020000040000fa
:04002400ba0400001a
:020000040000fa
:04002800ba04000016
:020000040000fa
:04002c00ba04000012
:020000040000fa
:04003000ba0400000e
:020000040000fa
:040034006003000065
:020000040000fa
:04003800ba04000006
:020000040000fa
:04003c00ba04000002
:020000040000fa
:04004000ba040000fe
:020000040000fa
:040044000e040000a6
:020000040000fa
:04004800ba040000f6
:020000040000fa
:04004c00ba040000f2
:020000040000fa
:04005000ba040000ee
:020000040000fa
:040054004c04000058
:020000040000fa
:04005800960400000a
:020000040000fa
:04005c00ba040000e2
:020000040000fa
:04006000ba040000de
:020000040000fa
:04006400ba040000da
:020000040000fa
:04006800ba040000d6
:020000040000fa
:04006c00ba040000d2
:020000040000fa
:04007000ba040000ce
:020000040000fa
:04007400ba040000ca
:020000040000fa
:04007800ba040000c6
:020000040000fa
:04007c00ba040000c2
:020000040000fa
:04008000ba040000be
:020000040000fa
:04008400ba040000ba
:020000040000fa
:04008800ba040000b6
:020000040000fa
:04008c00ba040000b2
:020000040000fa
:04009000ba040000ae
:020000040000fa
:04009400ba040000aa
:020000040000fa
:04009800ba040000a6
:020000040000fa
:04009c00ba040000a2
:020000040000fa
:0400a000ba0400009e
:020000040000fa
:0400a400ba0400009a
:020000040000fa
:0400a800ba04000096
:020000040000fa
:0400ac00ba04000092
:020000040000fa
:0400b000ba0400008e
:020000040000fa
:0400b400ba0400008a
:020000040000fa
:0400b800ba04000086
:020000040000fa
:0400bc00ba04000082
:020000040000fa
:0400c000ba0400007e
:020000040000fa
:0400c400ba0400007a
:020000040000fa
:0400c800ba04000076
:020000040000fa
:0400cc00ba04000072
:020000040000fa
:0400d000ba0400006e
:020000040000fa
:0400d400ba0400006a
:020000040000fa
:0400d800ba04000066
:020000040000fa
:0400dc00ba04000062
:020000040000fa
:0400e000cc0200004e
:020000040000fa
:0400e400ba0400005a
:020000040000fa
:0400e800ba04000056
:020000040000fa
:0400ec00ba04000052
:020000040000fa
:0400f000ba0400004e
:020000040000fa
:0400f400ba0400004a
:020000040000fa
:0400f800ba04000046
:020000040000fa
:0400fc00ba04000042
:020000040000fa
:04010000ba0400003d
:020000040000fa
:04010400ba04000039
:020000040000fa
:04010800ba04000035
:020000040000fa
:04010c00ba04000031
:020000040000fa
:04011000e002000009
:020000040000fa
:04011400ba04000029
:020000040000fa
:04011800ba04000025
:020000040000fa
:04011c00ba04000021
:020000040000fa
:04012000ba0400001d
:020000040000fa
:04012400ba04000019
:020000040000fa
:04012800ba04000015
:020000040000fa
:04012c00ba04000011
:020000040000fa
:04013000ba0400000d
:020000040000fa
:04013400ba04000009
:020000040000fa
:04013800ba04000005
:020000040000fa
:04013c00ba04000001
:020000040000fa
:04014000ba040000fd
:020000040000fa
:04014400ba040000f9
:020000040000fa
:04014800ba040000f5
:020000040000fa
:04014c00ba040000f1
:020000040000fa
:04015000ba040000ed
:020000040000fa
:040154002003000084
:020000040000fa
:04015800ba040000e5
:020000040000fa
:04015c00ba040000e1
:020000040000fa
:04016000ba040000dd
:020000040000fa
:04016400ba040000d9
:020000040000fa
:04020800ba04000034
:020000040000fa
:04020c00ba04000030
:020000040000fa
:04021000ba0400002c
:020000040000fa
:04021400ba04000028
:020000040000fa
:04021800ba04000024
:020000040000fa
:04021c00ba04000020
:020000040000fa
:04022000ba0400001c
:020000040000fa
:04022400ba04000018
:020000040000fa
:04022800ba04000014
:020000040000fa
:04022c00ba04000010
:020000040000fa
:04023000ba0400000c
:020000040000fa
:040234006003000063
:020000040000fa
:04023800ba04000004
:020000040000fa
:04023c00ba04000000
:020000040000fa
:04024000ba040000fc
:020000040000fa
:040244000e040000a4
:020000040000fa
:04024800ba040000f4
:020000040000fa
:04024c00ba040000f0
:020000040000fa
:04025000ba040000ec
:020000040000fa
:040254004c04000056
:020000040000fa
:040258009604000008
:020000040000fa
:04025c00ba040000e0
:020000040000fa
:04026000ba040000dc
:020000040000fa
:04026400ba040000d8
:020000040000fa
:04026800ba040000d4
:020000040000fa
:04026c00ba040000d0
:020000040000fa
:04027000ba040000cc
:020000040000fa
:04027400ba040000c8
:020000040000fa
:04027800ba040000c4
:020000040000fa
:04027c00ba040000c0
:020000040000fa
:04028000ba040000bc
:020000040000fa
:04028400ba040000b8
:020000040000fa
:04028800ba040000b4
:020000040000fa
:04028c00ba040000b0
:020000040000fa
:04029000ba040000ac
:020000040000fa
:04029400ba040000a8
:020000040000fa
:04029800ba040000a4
:020000040000fa
:04029c00ba040000a0
:020000040000fa
:0402a000ba0400009c
:020000040000fa
:0402a400ba04000098
:020000040000fa
:0402a800ba04000094
:020000040000fa
:0402ac00ba04000090
:020000040000fa
:0402b000ba0400008c
:020000040000fa
:0402b400ba04000088
:020000040000fa
:0402b800ba04000084
:020000040000fa
:0402bc00ba04000080
:020000040000fa
:0402c000ba0400007c
:020000040000fa
:0402c400ba04000078
:020000040000fa
:0402c800ba04000074
:020000040000fa
:0402cc00ba04000070
:020000040000fa
:0402d000ba0400006c
:020000040000fa
:0402d400ba04000068
:020000040000fa
:0402d800ba04000064
:020000040000fa
:0402dc00ba04000060
:020000040000fa
:0402e000cc0200004c
:020000040000fa
:0402e400ba04000058
:020000040000fa
:0402e800ba04000054
:020000040000fa
:0402ec00ba04000050
:020000040000fa
:0402f000ba0400004c
:020000040000fa
:0402f400ba04000048
:020000040000fa
:0402f800ba04000044
:020000040000fa
:0402fc00ba04000040
:020000040000fa
:04030000ba0400003b
:020000040000fa
:04030400ba04000037
:020000040000fa
:04030800ba04000033
:020000040000fa
:04030c00ba0400002f
:020000040000fa
:04031000e002000007
:020000040000fa
:04031400ba04000027
:020000040000fa
:04031800ba04000023
:020000040000fa
:04031c00ba0400001f
:020000040000fa
:04032000ba0400001b
:020000040000fa
:04032400ba04000017
:020000040000fa
:04032800ba04000013
:020000040000fa
:04032c00ba0400000f
:020000040000fa
:04033000ba0400000b
:020000040000fa
:04033400ba04000007
:020000040000fa
:04033800ba04000003
:020000040000fa
:04033c00ba040000ff
:020000040000fa
:04034000ba040000fb
:020000040000fa
:04034400ba040000f7
:020000040000fa
:04034800ba040000f3
:020000040000fa
:04034c00ba040000ef
:020000040000fa
:04035000ba040000eb
:020000040000fa
:040354002003000082
:020000040000fa
:04035800ba040000e3
:020000040000fa
:04035c00ba040000df
:020000040000fa
:04036000ba040000db
:020000040000fa
:04036400ba040000d7
:020000040000fa
:100400000fb220000e7b24000e01880000000000c7
:10041000000020000000e000020032000001200087
:100420002002880014000700540107000000e000cb
:1004300003003a00c07d22000100200002003700c6
:100440000000200001002000810f70000100320038
:1004500014000700000020000000e000020032004d
:1004600000000200000000007a2d020000000000e1
:100470000040da000000fe004440a9008004200093
:100480000000e0000300320000002000a00188000e
:100490004440a800000006008a1f78008b1f7800e7
:1004a0000000060091018800800478000000eb0045
:1004b0001a003700e284440032a0b4009905ba0063
:1004c000e284440032a0b4009906ba00e2844400f9
:1004d00032a0b4000006eb00476fde00fd07b2005b
:1004e000636ce10003003a00ebff07000000eb0043
:1004f0000a003700606ce10004003a00005deb0088
:100500008b05e900fdff3e00040037006168e10053
:10051000010032000086eb000b00070019c7ba008b
:100520001905ba000e04e00003003a000a00e000da
:10053000e0ff3a0000000600fe07b2009e018800be
:100540008a047800f5ff3700395dba008b05e900b1
:100550000c003200295dba008b05e900080032006a
:100560000c00e00003003a00e284440032a0b40032
:10057000f5ff370019ddba008b05e900faff3a00f4
:100580008904e800e184440032a0b40000000600c1
:10059000ac0b0400000000003400f800881f780055
:1005a00008002000a80188004f0478000000fa002d
:1005b00089c0a9000080fa003400f900004006005c
:1005c000809fbe00829fbe003400f8000000200023
:1005d000a00188000000fa00200f80000000e00069
:1005e00009003d007241800083418000000020002e
:1005f000f1ff2f0002004000838048007041880016
:1006000081418800080037007241800083418000ea
:1006100000002000110020000200400083804800fc
:1006200070418800814188008b40a9000080fa0059
:100630003400f9004f01be004f00be00004006002c
:10064000809fbe00829fbe003400f80000002000a2
:10065000a00188000000fa00a00f80000000e00068
:1006600009003d0092418000a3418000000020006d
:10067000f1ff2f0002004000838048009041880075
:10068000a14188000800370092418000a34180000a
:10069000000020001100200002004000838048007c
:1006a00090418800a14188008d60a9000080fa0077
:1006b0003400f9004f01be004f00be0000400600ac
:1006c0003600f800809fbe00829fbe00849fbe005f
:1006d000869fbe003400f80000002000a0018800c2
:1006e0000000fa00c0408000d1408000a2702d00c0
:1006f00033c22300a3000700c0408800d140880017
:100700001141800000032000808f500004003c0055
:10071000104180000000e8001041880025003700eb
:10072000601680004800de006140600000c0ea0002
:10073000614060000080fb00610060004800dd0057
:10074000611680000180a100010070006016880021
:10075000201680004900de006140600000c0ea0011
:10076000614060000080fb00610060004900dd0026
:10077000211680000190a100010070002016880061
:10078000a01680004500de006140600000c0ea0065
:10079000614060000080fb00610060004500dd00fa
:1007a000a11680000150a10001007000a016880071
:1007b0002228ef006b1107000040eb00c614070071
:1007c0000001be0080112a002b14070010c0b300e6
:1007d000c11407000001be0000122a002614070001
:1007e00020c0b300bc1407000001be0080122a0024
:1007f00021140700f81307008460a9000080fa00a4
:100800003400f9004f03be004f02be004f01be008e
:100810004f00be003600f90000400600809fbe0079
:100820003400f80000002000a00188000000fa0059
:100830000141800000032000808f500004003c0034
:10084000004180000000e800004188000d003700f2
:10085000a01680004300de006140600000c0ea0096
:10086000614060000080fb00610060004300dd002b
:10087000a11680000130a10001007000a0168800c0
:100880002028ef0084e0a9000080fa003400f9007d
:100890004f00be00004006003600f800809fbe00fa
:1008a000829fbe00849fbe00869fbe000200fa00a9
:1008b000f0418000fe0f5000010034003e28ef00a0
:1008c00030118000004f78001e407800ea4f500041
:1008d00007003200f041800081ad20001e41780009
:1008e000827078000000e800f041880007003700bf
:1008f00080ad2000f0150700020220008000eb0010
:1009000080ad2000a90207003e28ef008560a90005
:100910000080fa004f03be004f02be004f01be0030
:100920004f00be003600f900004006003600f80017
:10093000809fbe00829fbe00849fbe00869fbe0037
:100940000000fa00004280000000e00001003200d8
:10095000f91407008580a9000080fa004f03be004b
:100960004f02be004f01be004f00be003600f9002e
:10097000004006000040da000000fe000000050014
:1009800003f0a200889fbe008a9fbe008c1f7800e3
:100990001d010700240133006450e1004f003200c4
:1009a0006420e1005200320003826c0007003b002b
:1009b0000905d0000306d000820f54000c065d002c
:1009c0000200390002003200890178000306780035
:1009d0008582550004003d000003fd008103fd00f9
:1009e0008502ea008b854200840f720002003b0002
:1009f00060001000e08018006011b8000005eb00f6
:100a00007a28e1000a00390006007800c75ddd00a1
:100a1000f707b200878075002d00370082817100d2
:100a20000a017800610560008180d1000080d30058
:100a30008502e900f9ff3b00060440008784480076
:100a400002003b0060041400e0841c000988a3003d
:100a5000070032008a8171008281710061016400a7
:100a60008904d1000884d3008b05e8001700370003
:100a70000978a30013003a000b00e00013003400d3
:100a80008b05e9000804440089844c000a44740082
:100a90000978a3000d003a000b00e00007003400c5
:100aa0008b05e9000804440089844c0001003a00e9
:100ab0000b0020000978a300f7ff32000001eb00d3
:100ac00002003700828171000a017800930007005c
:100ad0000cf0a70001f0a000dc0037006420e1006a
:100ae00002003a00838f6c00dc0033000801be0076
:100af0000200be00d5003700889fbe008a9fbe005e
:100b00008c1f7800c0000700c700330003866c000c
:100b10006450e1002e0032006420e1003300320016
:100b20006150e1002f0032006120e100310032000d
:100b300085855500eb07b00009002000080420005f
:100b4000050037000804440089844c000a00310085
:100b50000603430087834b000001530081815b0043
:100b6000f8ff33000203be000800a00008044400a0
:100b700089844c00f6ff3900c639dd00830173001b
:100b800001003200130020008904d1000884d30042
:100b90000998a300050032000800a7000300a00088
:100ba0008904d1000884d3008b05e8008904d100b2
:100bb0000884d3000001eb000281d2005700070037
:100bc00001f0a1000cf0a70001f0a0009f00370089
:100bd0006420e100a10032000801be000200be0056
:100be000f7ff37006120e1009c0032006000b80090
:100bf000f3ff37000000200001f82700f0ff370066
:100c000014002000ce003700f4ff2f00cc00370086
:100c10000001be00670007000470a70003f0a100f8
:100c20006509b100160032000d0035006828e100aa
:100c300006003500f0ff2f00f1ff27000300e00061
:100c400013003b00010028000000050000004000e8
:100c5000818048008502e900fcff3a000800370067
:100c6000f88f420002003c008000eb00000005000d
:100c70008100d1000080d3008502e800fcff3a002b
:100c80000300e00002003b0060001000e08018005c
:100c9000000006000001be00460007000470a70027
:100ca00003f0a10003f8a30013003a006509b100a6
:100cb00010003200090035006928e100020035000b
:100cc000010028000000050000004000818048006d
:100cd0008502e900fcff3a0000000600f88f4200a0
:100ce000050035008100d1000080d3008502e800b6
:100cf000fcff3a00000006008000eb000000050049
:100d00004f89de0082017800a80037006011b8002a
:100d1000b600370004002000890037008100200061
:100d2000618055000b003d000b00200061fe2f008c
:100d30000100e1001d003400828171006101640046
:100d40008904d1000884d3000000e800faff3a00cb
:100d50007100200061006400030070000200600068
:100d60000900320061044400e0844c000988a500b9
:100d7000050032008b05e8006808e10002003a0037
:100d80008904d1000884d300f20f20000258e1004a
:100d900005003d00c75ddd00f907b20089807500e0
:100da00008007800000006000bf827008b00780090
:100db00000000500c70ade00f107b200f50fb2001f
:100dc00008003200e1cf4200020032000170a000b2
:100dd00024000500810f70000100320004080500a6
:100de00044000500810f700002003a001400050065
:100df0008502e9000000400081c04800fcff3b0084
:100e00000170a000240005000004be00e9ff0700f7
:100e10000003be000405be000200be00e5ff07009f
:100e2000844f7500000006000200be006450e1001f
:100e3000050036006420e100020036000968a300c6
:100e400001003a000800be000160a0004f067800d3
:100e50004f05be004f04be0000000600f0ff2f004b
:100e6000f1ff2700f9ff3700889fbe008a9fbe0070
:100e70008c1f7800e4ff0700ebff330003866c0053
:100e80006450e100240032006420e10027003200b9
:100e90006150e100220032006120e10021003200b7
:100ea0008b854200eb07b1000134b800003ab8006e
:100eb0000804420089844a00013ab8000030b800b2
:100ec0008880400009014a0004003300000040000f
:100ed00081804800020149008b05e900c909dd0055
:100ee000830170000100320013002000c814de00ee
:100ef0004814dd004709de001200b200c808de0019
:100f00000884700085ff070001f0a1000cf0a70025
:100f100001f0a000cdff37006120e100cfff3200db
:100f20000801be000200be00f7ff37006150e1007b
:100f3000fcff3a00c9ff37000001eb005a00370000
:100f4000889fbe008a9fbe00841f7800aeff070006
:100f50004f00780011003300f0ff2f00838f6c00ea
:100f600006003b00040565000a00a70008003700e2
:100f700009f0a6001000200008003700820f54007e
:100f8000838f5c00030039001000200001003e0048
:100f90000000200009f0a7000000ea004f05be0095
:100fa0004f04be000000e00000000600881f78002b
:100fb000030478000300e00007003d00600010001b
:100fc000e080180060011900e081190002003b0078
:100fd00001f02d00030037000400070008f0a7000f
:100fe00001f0a0004f04780000000600889fbe00ba
:100ff0008a9fbe00008270000402710004827100aa
:10100000260032000004be000200be006011b800dd
:101010006b092000950220000182cf000a003900f0
:101020000541b1000082cf00070039000541b10041
:101030000982cf00040039000541b1000882cf00c9
:10104000010039000541b100054252001200320092
:101050000a003b0082817100610164008100d100bf
:101060000080d3008984d3000884d3008b05e80076
:101070000442e800f7ff3a00070037000804440084
:1010800089844c0000004800818048008b05e900fd
:101090000442e900f9ff3a0020ff07004f05be00b7
:1010a0004f04be0000000600889fbe008a9fbe005d
:1010b0008c9fbe00820578000004be003dff070043
:1010c0000800be006420e1000700390002003a0079
:1010d000f1ff2700f0ff2f000160a00012022000a6
:1010e00022428800550037006120e10003003a00e9
:1010f0000b00a70001f823005000370001f0a10009
:101100000200210093642400bdfe07000800be0019
:1011100004003500b2fd2000930c24004b000700b2
:101120000004be000005eb000b00a6004f0dde0022
:1011300001f0a1000004be0032982f0023ea230032
:1011400049ff07000001eb0003f023000b00a7009c
:1011500003f823000bfe0700adfe07000000a70008
:101160000a00a200e6fe07000b00e00003003200c8
:101170000200200003f0230001fe070001f0a2009e
:101180000006be00020020009304240036ff070082
:101190000801be00fbfd0700809fbe000c00be00e2
:1011a00022a22a00d3a723002fff07004f01be0071
:1011b000f4fd07000004be0001f0a10002002000c1
:1011c000039823008efe07000800be0019003500ba
:1011d0000001be0024ff07000006be00b2c52900c2
:1011e000e362230020ff070022222b00f3942b0050
:1011f000e4fd07000c01be001bff0700e27328009e
:1012000083c02300dffd07000c01be0016ff0700ae
:1012100042aa2a00a3e22b00dafd07000c01be005f
:1012200011ff07000801be000fff07000801be0004
:10123000d4fd07000a00a70001f0a2004f06be007f
:101240004f05be004f04be00000006000400200051
:1012500000003700889fbe008a9fbe008c1f780068
:101260004f26dd00e8fe0700effe33006120e100bd
:10127000430032006250e10041003e003e00390070
:101280006420e1003c003200058255000f003b0065
:101290000402e80038003a00800f5300818f5b00a1
:1012a000350034000800be0003f0a10001f0a600e4
:1012b00003f0a0000cf0a700b2fd0700e3fe37002a
:1012c0000603430087834b000c464600000553008d
:1012d00081855b00020033000a03be000c00a00001
:1012e0000402e900f6ff3b00850578000602430092
:1012f00087824b0004003a006000b80009f0a700a4
:1013000001f0a000d1fe37000002520081825a0095
:101310000704e000040033000603430087834b000a
:101320008b05e900faff3700090578000604be00c6
:101330000203be006011b80078fe0700e00f520003
:10134000e08f5a000700350002003c000c08a300a3
:10135000040032000601be0003f0a0000cf0a7005c
:1013600088fd07000a85680001f0a1000af0a700c7
:1013700001f0a000b5fe37000800be00b3fe370044
:10138000100220000cf0a60020428800b3fe3700b7
:101390008001780002003700b15978000201e900ad
:1013a0000200e000fcff3a00000006008001780027
:1013b00002003700815978000201e9000200e000d4
:1013c000fcff3a0000000600020037000204e000c3
:1013d0000b00320081017800000278003041780073
:1013e000b14f5100f9ff3200100020001442780084
:1013f000934f5200030031000080eb000000060014
:101400000000eb0000000600800078000101780079
:101410003104e000fdff3a0000005100000006002a
:101420000002780084017800030278003404e000b0
:10143000fcff3a0002003700845978000201e900fd
:101440000200e00003003200314278000404e000b2
:10145000f9ff3a008049eb00000006000c0037005d
:10146000b0417800b1cf51000600320010002000da
:101470009542780094cf52000b0031000080eb00c1
:10148000000006000304e000060032000201e9004b
:1014900001027800800278000200e000f0ff3a00cc
:1014a000000005000000eb0000000600ee8747008a
:1014b000889fbe008a9fbe008c9fbe008e1f780052
:1014c000f0b79f00010678008205780000047800dc
:1014d000080578000a047800b84678000d00fb0083
:1014e0008e0007000000e000f9ff3a00d0c2b30010
:1014f00080cf56000300320000c0e90080cf5600c4
:1015000002003a000a05e800010037008046780032
:101510000b00e00005003500e18f550003003200ac
:1015200040022000808f5500060034006044b8005f
:101530000c00e000720032007fb09700000e7800cf
:10154000480037000b00e0000e003200f08f55001d
:101550001a003a0000c3b3009a4f100017003a0077
:101560001a40900081c7b300814f50000300320041
:1015700081c5b300814f500010003a000a85e80091
:101580000e003700ab00200000c3b3009a4f1000dc
:101590000a003a001a40900081c7b300814f500002
:1015a000040032008b00200081c5b300814f500041
:1015b00002003a000a85e8000b0120000a007800ca
:1015c000000278000400780001c3b300b0cf10001f
:1015d000fbff3200040778006044b800b4b79f00f6
:1015e0000d00370021a3200081405000c1ef9f0073
:1015f0006159b9000800be00c80807004fea97000b
:101600000401fb00cf91de00c8b79f00d9b79f004f
:1016100002044000838448008e0278003e00fb00f4
:1016200085bf9f00450007000b017800800078000f
:1016300020a32000af0407008fba97000000e0004d
:10164000e8ff3a003fb29700850f550007003a00c7
:101650006044b8000c00e00029003200ffb297009f
:10166000050e78006044b80025003700048252005f
:1016700070a5200060c07d000000fb000002520049
:101680001700330011003a004fe997000200fb00f9
:10169000cf80de000000540081805c00800f540089
:1016a000818f5c00090039006159b90085bf9f0036
:1016b000870807008fba97004fb19700dfb19700f6
:1016c000820f5000838f5800050032002002200056
:1016d000204288000084eb008084eb000500370086
:1016e000d0c2b30080cf560002003a00600414005c
:1016f000e0841c000c00e00001003200050e7800c0
:101700000800be004f0778004f06be004f05be0020
:101710004f04be00ef00b100000006006900e100c8
:10172000040035006d00e100030034000002b10048
:101730000100320000000500100005008000780064
:101740001104b100030035009101b10001003c001b
:101750000050a00000000600881f780002047800f6
:10176000080178000aff0700080040004f047800d5
:10177000000006000000fa00881f780000047800ce
:10178000ea8157003fb9970088007800c0ba20006e
:10179000070007000000e000020035008040eb0079
:1017a000017478004f0478000080fa000000060001
:1017b0006200fa00889fbe008a1f7800000578004a
:1017c00081047800020478008300780080f92f00fb
:1017d0000f004000720607009a979f00a9979f008c
:1017e0000000eb00b09f9f001885fb008a04fb00ff
:1017f0000a05ea004f55de0050022000808f540099
:101800000d003200e10f55000b003a000a0178008c
:10181000880078002f9097009f91970003000100a7
:10182000a0979f000000e0008e0032003f989700d4
:101830000000e800b09f9f000a044400500220000e
:10184000808f5400040032000900e000e6ff3a00f7
:101850003f989700840037000000eb00909f9f00a6
:10186000809f9f00f0979f00e0979f00d0979f0078
:10187000c0979f0007003700c1b020000100500052
:101880000000400001b0200061007800df98970060
:1018900001007000d09f9f00880478000904780040
:1018a000384578008a00fb00c0b020001b04070008
:1018b0000000e000f0ff3a00a1c2b300814f5500e4
:1018c0000e003a00cf8897000180e900c08f9f008a
:1018d00010007800c09f9f000000e00005003d0060
:1018e0000000ea00c09f9f005f9897000020a000c2
:1018f000d09f9f000904e8000f003700c09f9f00a1
:101900000000eb0005003700f2ff2700820f5000b7
:10191000020032006a01b900028040000904780028
:1019200088047800b900fb000103b100e98f500082
:10193000f5ff3600c09f9f00e0c2b300984f100033
:10194000020032000080eb0019003700a0c2b30093
:10195000d84f100007003a00cf8897000180e900b7
:10196000c08f9f0010007800a09f9f000804e8002f
:10197000100037000000eb00a09f9f008800780057
:1019800005003700f3ff2700830f500002003200ec
:101990006a02b90004004100010478008800780060
:1019a0003101fb000203b100e90f5100f5ff3600e1
:1019b000a09f9f00984478008900fb0080af200022
:1019c000d60307000000e000020032000804e8002f
:1019d000010037008044eb00c97f9f0080c6b30040
:1019e00080cf540004003a0098cf14000a003a0057
:1019f0006640500006003700c0c6b30080cf5400d8
:101a000005003a0098cf140003003a0065404000fa
:101a1000c07f9f000804e8001801fb00e3fb2f00d3
:101a20008f81410081f92f008f804000a0f92f00a5
:101a30000f004000100007000000e00009003a001d
:101a4000e1fb2f008f804000a0f92f000f00400025
:101a5000170507000000e000020035000804e80058
:101a600061ff37000080eb004f0578004f04be0097
:101a70000080fa0000000600889fbe008a1f7800e0
:101a800000047800824478000305780070c6b30033
:101a900080cf54001a003c0000c0e90080cf540001
:101aa000cd003d006d40500080cf540077003200e3
:101ab0000b003c007140500080cf540035013c00c9
:101ac00000c0e90080cf5400c3003d0050c2b30005
:101ad00080cf54002c0132007c40400005003700cc
:101ae00030c6b30080cf54001a0032001e003c0004
:101af00000c0e90080cf540026013a00b60037004c
:101b0000f0c6b30080cf54006000320007003c00f4
:101b10006640500080cf5400130032006540400002
:101b200080cf54001b013a00d400370050c7b300e7
:101b300080cf5400550032006340400080cf5400f5
:101b40005200320002c7b30082cf540011013a00a4
:101b5000ff0037001181e9008208780078009000ca
:101b6000127578001101370028609000c2c6b300da
:101b7000824f500007003a001101780064005100c4
:101b8000800878001000be004f89de0082017800d6
:101b90001400370012c7b300824f500003003a0010
:101ba000110278006800520005003700a2c6b30099
:101bb000824f500006003a0091027800688052007f
:101bc000800878005001be004000be0005003700cc
:101bd0001180e9008008780010007800cf80de00d6
:101be0006109b900009cbe000294be00286290000a
:101bf00085c6b300854f52000d00320025c6b300e4
:101c0000854f520004003a000000fb00cf80de0048
:101c10006109b9000800370045c7b300854f52007d
:101c200003003200e6c24200854f520004003a0031
:101c3000cf80de006109b900009cbe000294be00a6
:101c40003802be002803be0078009000d1c2b30065
:101c5000e00f5200e08f5a00e00f5b00e08f5b0066
:101c600008003500881090000118a300020032001f
:101c7000b1c2b300030037000108a30051003200d5
:101c800001c2b300017578004c0037002860900055
:101c9000c2c6b300824f500008003a00110378001a
:101ca00064005300800878001002be006033b80062
:101cb0000400be000601be001400370012c7b300c6
:101cc000824f500003003a00910278006880520071
:101cd00005003700a2c6b300824f500006003a004c
:101ce0001103780068005300800878005001be009e
:101cf0004000be00050037001180e9008008780030
:101d0000100078008000eb006011b800009cbe005d
:101d10000294be002862900085c6b300854f520031
:101d20000d00320025c6b300854f520004003a0072
:101d30000080fb008000eb006011b8000800370055
:101d400045c7b300854f520003003200e6c242008f
:101d5000854f520004003a008000eb006011b8008b
:101d6000009cbe000294be00081090000038a30042
:101d7000140032003800be002801be00e00f500001
:101d8000e08f5800e00f5900e08f59000d0032003d
:101d900080c7b30080cf54000300320080c5b30079
:101da00080cf540007003a007800900001c3b300d0
:101db000017578000000e800097578000000e8006f
:101dc0007004980078009000000545006a049800af
:101dd000894078006900370028619000c0c4b300d2
:101de000804f510006003a0091037800688053004c
:101df000800878005001be004000be00050037009a
:101e00001101780064005100800878001000be00c5
:101e1000e9050700009cbe000294be00b8009000d7
:101e2000780090000100e00002003d00d1c2b30044
:101e300008003700881090000118a300020032004b
:101e4000b1c2b300030037000108a3000400320050
:101e500001c2b300017578000000e800700498002a
:101e600078009000000545006a0498008900fb0096
:101e700008007800530007004e00370028619000ea
:101e8000c3c6b3001180e900834f51002400320023
:101e90000a003c00e4c15100834f5100270032008a
:101ea00083c1e800834f51001500320020c6b30003
:101eb000804f510020003a000a00370043c7b300aa
:101ec000834f51001d003200e6c14100834f510095
:101ed0001a00320010c7b300804f510016003a00bc
:101ee000060037001180e9008008780010007800b3
:101ef000485c9000084878002e0037001180e90007
:101f00008008780010007800680a9000cfa2de00f8
:101f1000612bb9000498be000690be002500370072
:101f2000800878001000780068099000cf91de00ea
:101f30000288be001f0037001180e9008008780089
:101f400010007800680c900008087800190037002d
:101f50001181e9008208780012027800cfa2de0029
:101f6000612bb900049cbe000694be00f8009000ee
:101f7000010545006a049800804078000800780058
:101f80009c0207000b00370078009000097578006c
:101f90000600370078009000000545000904e000c5
:101fa00001003a0059c2b300094d78000000e80072
:101fb000700498000000eb004f0578004f04be004d
:101fc000000006002f04b000889fbe008a9fbe005c
:101fd0008c9fbe008e1f78000007780081f79f005d
:101fe0003e04be002e05be005e0890000000e0002a
:101ff00002003d0060002000500f98008e00780025
:1020000020fb2f000f00400050020700e20f50009d
:102010000a003a0030002000100f9800b1c9b30048
:102020000ff0970081404000e09d2000e1cf50007c
:102030000d003e00a09d20000b0037000000e000d6
:102040000f00340030002000100f9800b1c9b30019
:102050000ff1970081404100609e2000e1cf5000c9
:1020600001003e00209e2000ee009000b048780065
:10207000b06878001040780090409800f300370076
:102080000000e00005003a0022fb2f000f01410094
:10209000001978008001eb00e70037006022b800eb
:1020a0006033b8000800be000a01be008a040700c1
:1020b0000000e00001003d000bf0a2007059270075
:1020c0009f9897000088b900026a2800130020003a
:1020d000e5040700640650009c9f9f0013003b002e
:1020e00063061600c0ff2f00000666008c01ea00a0
:1020f000939f9f00ad9e20000800be000a01be0015
:10210000070037000c08a300030032003d02be00a8
:102110002d03be00760507000c86d100e886460038
:102120000c00e000f7ff3c00180037000c00e00056
:1021300018003200c0ff2f00000666009c9f9f0021
:10214000ad9e20006000b8000200200003ff2300c5
:10215000070037000c08a300030032003d02be0058
:102160002d03be00620507000c86d100e8864600fc
:102170000c00e000f7ff3c000002be000203be00be
:102180000800be000a01be005d0407000004be0096
:102190000205be00de08900060c6b3000ff2970093
:1021a000804f5200040032006000200062c4b3007f
:1021b000824f520002003a009f9a97006a804200c4
:1021c00081004000f1b79f0001037800f30f530036
:1021d0000200340037012000f7b79f0000c3b300ae
:1021e000c0779f0056fb2f000f0343000e007800be
:1021f000a0b79f00060778003d0037000800be002a
:102200000a01be000b0507000006be007fb1970063
:1022100068015100f2b79f004240a9000c00340051
:10222000300507000002be000203be000800be0029
:102230000a01be00a40507006022b80046782d0000
:10224000771924002a0507000004be000205be001d
:10225000e80047008e0020000802be000a03be000e
:10226000b4b79f00c5b79f00d6b79f00e7b79f00e0
:102270000c01be00010478000c003700a40020000f
:1022800005002000c0fd2f000f0040008401070062
:102290006fa89700ffa897000fb197009fb1970014
:1022a00005c3b300056441000001be00e00f51000a
:1022b000e08f5900030034000e07e900e10f4700ea
:1022c000eeff3a00880078003fb49700cfb4970043
:1022d0005fb59700efb597000200370000c3b30069
:1022e000806078000e07e900fcff3b006887400033
:1022f0007fb397000600e000070034006022b800ba
:102300006033b8000800be000a01be00f7030700f2
:102310000000e000b9ff3c000e0378002fb79700e3
:1023200051fb2f008f804000010353009f9b9700bb
:1023300067804300909f9f00020037000603e9007a
:102340000000e900010178008200780003c3b300b7
:10235000b1cf1100f9ff3200909f9f00de0990007d
:1023600061c6b3000ff29700814f520003003200a4
:1023700061c4b300814f520002003a000000e8003f
:102380000a0037001000200051c6b3008ff29700fa
:1023900081cf5200050032000540780050c4b200e1
:1023a0000080fb000000e9004f00de0083014000d8
:1023b000868f510001003400860178000300e000a0
:1023c0001d00350000c3b300868f510006003d009c
:1023d00062c279006940400041c3b300814f52009e
:1023e00001003c00694050008300e9008100410089
:1023f00001003700840178000302e900010378003e
:10240000a142780080cf5200faff320091c3b3009e
:10241000814f500001003a00054be8000400e00045
:1024200005003d000201e9008301e8001f9b9700c1
:102430000603e800969f9f008ff397008700fb003c
:102440001f9a97000e007800060007004f077800db
:102450004f06be004f05be004f04be002f04b10062
:1024600000000600f0874700889fbe008a9fbe00dc
:102470008c9fbe008e1f7800000478008144780095
:102480000205be00040678000b00e00002003c00dc
:102490001b002000eab1200060c6b30080cf5400ca
:1024a0000e00320060c4b30080cf54000b00320035
:1024b00070c6b30080cf54000300320070c4b30074
:1024c00080cf540081003a00e40f46007f003500c1
:1024d00058089000800f56007c003d000c06e80074
:1024e00060c6b30080cf54001000320060c4b30057
:1024f00080cf54000d003200081090000038a30077
:1025000004003a0058089000808f550001003d00fb
:102510005b0c9800580890000c005000500c98007c
:1025200002003b000000eb00500c980018089000df
:10253000e80090000c00e00026003c0002c3b3005d
:10254000827078000000e800100c9800d808900015
:102550000100e00003003c00881090000138a30057
:1025600005003200e8009000e2c2b30082707800fb
:102570000000e800100c9800580890008c00ea0059
:10258000810f500001003d000006ea008c00ea00c7
:10259000210c9800000646005c0c98008b0f56003a
:1025a000010034000b0678003c0c9800e800900015
:1025b00018089000008040000c0178008a00780024
:1025c00073fb0700580890000c0650004c0c980054
:1025d000900037008c8f550018003d0000804000af
:1025e0000b0178008a00780069fb0700180890004a
:1025f00000804500100c98008b0556002b0c9800ad
:10260000d80890000100e00003003c008810900012
:102610000138a30006003200e8009000e2c2b300d7
:1026200082707800380890000000e800300c9800b4
:1026300058089000400c9800760037000080400059
:102640000c0178008a00780051fb07001808900000
:1026500000004600100c98008c855500d8089000aa
:102660000100e00003003c00881090000138a30046
:1026700005003200e8009000e2c2b30082707800ea
:102680000000e800100c980058089000808f55005a
:102690000100340080057800e800900018089000e0
:1026a000008040008c0045000b01780038fb0700db
:1026b000180890000b004000100c9800580890007b
:1026c0008b0550002b0c9800520037001808900022
:1026d000e80090009a7078000000e800100c980064
:1026e000d80890000100e00003003c008810900032
:1026f0000138a30005003200e8009000e2c2b300f8
:10270000827078000000e800100c980058089000d3
:102710000000e000100034008b05e900808f5500b8
:102720000100340080057800e8009000180890004f
:10273000008040008a00e8000b01780014fb0700cd
:10274000180890000b004000100c980058089000ea
:102750008b0550002b0c9800e800900018089000a2
:1027600000804000095878000007e8000c00e000f5
:1027700004003500b1c2b300014878008e0478002f
:1027800004003700d1c2b300014878008e047800fd
:102790000c06ea007d8557008006eb000900370033
:1027a000a20020008c0078007280570031000700e2
:1027b0007fb097008fb89700016d78000006780011
:1027c0008d06e8000c00e000f5ff3c000d00e00085
:1027d00009003a008e04780000c3b300805c7800e2
:1027e000050037008d06e900fc80570061c07e00bf
:1027f00002c3b300825c40000d00e000f9ff3c0022
:10280000e800900018089000008040008084540088
:10281000390c98000810900074006000f00f500010
:102820000e003a0098089000780090000080400068
:10283000a808900001004000b80890000100400086
:10284000c808900001004000f8089000810f500077
:1028500002003d0000805000000c98004f077800f7
:102860004f06be004f05be004f04be000f01b10071
:1028700000000600800278000103780011000900c2
:102880000203d80080017800830a78000299b90019
:102890000201530092029800050078000000060033
:1028a000881f78008a9fbe008c9fbe0000047800bd
:1028b0000205be000406be000401be000a00be0000
:1028c000e9020700008cbe000c01be0013040700e3
:1028d0000005550081855d002a0498003b0498009e
:1028e000080078004f06be004f05be004f04780078
:1028f0000000060003003700b0cf100005003200d2
:102900000201e900800178000200e000faff3a00cd
:1029100000000500030078000000060002003700f8
:102920000304e00006003200000178000200780095
:10293000b041780081cf5100f9ff3a000100370023
:102940000001eb000200780000000600889fbe0036
:1029500000047800e68440001900d0004500de0045
:10296000f27f2000820f500010003a00000ceb00b4
:10297000990478006f816400200020001b003a0059
:10298000210190000200e00018003a0011019000bf
:102990000200e00015003a00100020001100e000e5
:1029a0001200320020002000100037000000e0007c
:1029b00004003a0001007800fb0107000000e0007d
:1029c00008003c00f20028001901610001fe23000c
:1029d000810c710021c02f00010c40000080eb0031
:1029e00002003700000ceb000000eb004f04be00bb
:1029f00000000600fc874700889fbe008a9fbe003b
:102a00008c9fbe008e1f78000006780080c5b30042
:102a100080cf50000a0032007740400080cf500045
:102a20000a0032006940400080cf50000b003200a5
:102a300070ac200080bf9f00ae0020000a0037006d
:102a400062ab200082bf9f000600370073ac2000fd
:102a500083bf9f008e0020000300370074ac20006d
:102a600084bf9f000e0120003c02be002c03be006c
:102a70000605be000404be0040c6b30080cf50006f
:102a8000030032006540400080cf50000b003a0048
:102a9000e00f5200e08f5a00e00f5b00e08f5b0018
:102aa00006003d006000b8006011b800040450004a
:102ab000858458000605590087855900e80f57009e
:102ac0000400320040002000f00f570038003a00a8
:102ad0000100370030002000e00f5400e08f5c0060
:102ae000e00f5d00e08f5d0004003a00dc0890001c
:102af0008d0120000100e000060032008e00e90098
:102b0000888060008fba9700e5c07800f1ef9f00e1
:102b10007d012000800078008100e900050033007d
:102b20008b05d1000a85d3008984d3000884d300a3
:102b3000f9ff3700089ebe000a96be00120037005b
:102b40008d06e9008e00e900848060000fb99700cf
:102b5000e2c1780082fd2f000f01410003f17e00e9
:102b6000800078008100e900050033008783d100f0
:102b70000683d3008582d3000482d300f9ff370097
:102b8000049ebe000696be003c02be002c03be00a2
:102b9000e00f5200e08f5a00e00f5b00e08f5b0017
:102ba0008b0034000d00e000e5ff3c00880037009a
:102bb0002c60900081c6b300814f50000b003200a2
:102bc00006003c000004e00008003200e6c05000af
:102bd000814f50004e003a0004003700c1c6b300d8
:102be000814f50004a003a00210037000800e00001
:102bf00004003a005c0890008d0120000000e00015
:102c000006003200110009000e84d8000fb99700a9
:102c1000e2c07800f1ef9f007d0120001100090063
:102c20000e84d8000a003700110009000e04d800f5
:102c30008d06e9000e81b900020454008fb8970098
:102c400061417c0081fd2f008f80400082f07e007a
:102c5000000478000800e000020032000d00e000ef
:102c6000f1ff3c00cfc4de00614db9002500370004
:102c7000e00f5400e08f5c0004003a005c08900014
:102c80008d0120000000e000070032006171b900f2
:102c90000800be001e0307008fb99700e3417800cb
:102ca000f3ef9f007d0120006171b9000800be00b4
:102cb000070307000b0037006171b9000800be0070
:102cc000e90107008d06e90000f1b9000204540093
:102cd0000fba9700e4427c0084fd2f000f024200ef
:102ce00005f27e000004be00e00f5000e08f5800a7
:102cf000020032000d00e000efff3c004fcdde008f
:102d00008a057800089ebe000a96be003000370093
:102d1000e00f5400e08f5c00e00f5d00e08f5d008d
:102d200004003a005c0890008d0120000000e000e3
:102d3000090032006172b900612bb9000800be00c1
:102d40000a01be009b0307000fba97006442780097
:102d5000f4ef9f007d0120006172b900612bb90082
:102d60000800be000a01be008b0307000d003700fb
:102d70006172b900612bb9000800be000a01be00f3
:102d8000900307008d06e90000f2b9000404540026
:102d90008fba970065427c0085fd2f008f8242002c
:102da00084f27e00009ebe000296be003c04be007f
:102db0002c05be00e00f5400e08f5c00e00f5d00ca
:102dc000e08f5d00020034000d00e000e8ff3c00f1
:102dd000e80f570010003a000c1090000038a300d4
:102de0000d003200f78f560006003e0085fd2f00d3
:102df0008f824200e5c07e0000c3b30080cf500048
:102e0000050032008d06e90002c3b30081fd2f00ea
:102e10008f80400082f07e0078811600120e9800ac
:102e20006c00900083fd2f008f8141008d80410058
:102e300057f907001c089000dc089000810f500033
:102e400006003d0000805000000e98000c1090001d
:102e50000040a100001698000f0037000100e000bc
:102e60000d003d008c109000f4806000f08f500049
:102e700009003a007c099000fc009000810051009c
:102e80000c09900082805000008050004240a90050
:102e900001003400000e98004f0778004f06be0076
:102ea0004f05be004f04be00cf01b1000000060078
:102eb0000400fa00889fbe008a9fbe008c1f780025
:102ec0000004780001067800f80d9000780090006a
:102ed00080855500080890008085550018089000ee
:102ee000808555002808900080855500380890009e
:102ef000808555004808900080855500000222001a
:102f000090bf9f0000032300a0bf9f000810900007
:102f10000028a30015003a000b00e0001300340065
:102f20000b0578008a047800e20f55000100360096
:102f300029002000c801900009017800ee805700a8
:102f40005800900003000100500498000000e000c9
:102f50008c0032006808900009004000600c980066
:102f6000090555004240a900eeff3c0078019000a1
:102f70000200e0000c003400c80190008c007800d2
:102f80005800900003000100500498008080eb007e
:102f90000000e0007c003200e8089000780090001b
:102fa00000804000600c9800880c90000900e00050
:102fb0001100340009057800e28f5400010036004a
:102fc0002a002000c80190000a017800ec80570018
:102fd0005800900003000100500498000000e00039
:102fe00068003200680890000a004000600c9800f9
:102ff0008a845400edff3700180990000200e000b9
:103000000c003400c8019000e800900058009000c7
:1030100003000100500498008080eb000000e000f5
:1030200059003200e8089000180890000080400025
:10303000600c9800a80c90000900e000110034001a
:1030400009057800e28f5400010036002a002000b4
:10305000c80190000a017800ec80570058009000e9
:1030600003000100500498000000e0004500320019
:10307000680890000a004000600c98008a845400a0
:10308000edff3700380990000200e0000e00340028
:10309000e80090001808900080804000c80190006f
:1030a0005800900003000100500498008080eb005d
:1030b0000000e00034003200e8089000380890007a
:1030c00000804000600c9800c80c90000900e000ef
:1030d0001100340009057800e28f54000100360029
:1030e0002a002000c80190000a017800ec805700f7
:1030f0005800900003000100500498000000e00018
:1031000020003200680890000a004000600c98001f
:103110008a845400edff3700081090008000eb0017
:103120000028a300180032000b00e0001600340055
:103130008b04780009057800e28f54000100360006
:103140002a002000c80190000a017800ee80570094
:103150005800900003000100500498000000e000b7
:1031600008003200680890000a004000600c9800d7
:103170008a8454004240a900eeff3c008000eb002e
:10318000010037008080eb00010078004f067800d6
:103190004f05be004f04be000080fa00000006008c
:1031a0000108780000000600e600400011017800e8
:1031b00005002800850261006f0161008208780027
:1031c000020032001200200011003700a001900020
:1031d000120020000300e0000d003a009001900072
:1031e0000300e0000a003a001000e00008003a0086
:1031f00036003700640340009608780080017800ac
:10320000530b780090097800040878007001510091
:10321000110278000400e000f6ff320013003700ce
:1032200064024000140378004f33de0083814100c4
:103230008308730080017800d3037800cf3bde0061
:103240001403780006034300068a73001302780013
:1032500004024200100378004f33de00860972003a
:1032600090017800038841000201e9009101780093
:10327000ef8f5100eaff3600100037008001780020
:10328000530378004f33dd001002d10004087300af
:103290006402400094037800cf3bdd001303d100ab
:1032a00086897300110378004f33dd009401d1004b
:1032b000030a73009108d1000201e800910178002f
:1032c000ff8f5100edff3e00ef8861009188720092
:1032d00002007800000006008f1fd10016030700cf
:1032e0008f87e9000000e00000000600809feb00ef
:1032f000110307008f87e9000000e00000000600ce
:103300002800fa00889fbe008a9fbe008c9fbe00e6
:1033100003866b008f0007006400e1004400320068
:103320006408e1004a0032006100e100460032001a
:103330006108e10049003200ec0647006000b80077
:103340003d02be003d03be00f48657006011b80088
:103350003d04be003d05be007d0320000b0037008c
:103360000000a0008d06e9001300320004024200b4
:1033700085824a0006034b0087834b000000400013
:1033800081804800020149008381490008025200ff
:1033900089825a000a035b008b835b00f0ff3b00cd
:1033a0000802420089824a000a034b008b834b00cb
:1033b0008d06e900edff3a00848272008682720079
:1033c000f707b2008782720001003200150020006a
:1033d0001e0490003e0b900006035400e63fb00030
:1033e0000368a300070032000000a7000500a0004a
:1033f0008301d1000281d3008180d3000080d300fb
:103400000603e8008301d1000281d3008180d3004c
:103410000080d3000002eb000482d20021000700ec
:1034200003f0a1000cf0a70003f0a0005d0037003e
:10343000640247006408e100570032003400be0017
:103440003401be00f6ff37006108e100520032008f
:103450006011b8006000b800f1ff370003ff2700db
:1034600002002000fbff3700839f68000100e0009e
:1034700002003d0060001000e08018000300e00042
:1034800002003d0060011100e081190010010700f9
:103490004f00e00002003b0060001000e0801800d8
:1034a0000000060018002000570020000804530008
:1034b0000d003d000600200097fc2f000740e100b2
:1034c0001e00340084827200610260008301d1001a
:1034d0000281d3008180d3000080d3000804e8007b
:1034e000f8ff3a0047002000610460000504740002
:1034f000040464000d00320061004000e0804800d8
:1035000060014900e081490003b8a50007003200ce
:103510000603e8006538e10004003a008301d100a9
:103520000281d3008180d3000080d300f87f200087
:103530000830e10003003500080378006000b8009f
:103540006011b8004433dd00f300b2008301730062
:1035500000000600680447000294be000094be000c
:10356000fc0447008694be008494be0009007800e5
:10357000ba02070008007800b80207009900780036
:10358000814f70000b003b000800be009302070053
:103590004f00b10003003700f3ff2700f2ff2f00b8
:1035a0006110b9004f06be004f05be004f04be00bb
:1035b0000080fa000000060081037800fdf5070096
:1035c0000001be006000b8000478a30013003a00b8
:1035d0006220e10015003e000d0039008301d1009a
:1035e0000281d3008180d3008301d1000281d30006
:1035f0008180d3008301d1000281d3008180d30078
:103600000538b000c42add00f300b20083817200e7
:1036100007f0a70003f0a00000000600f3ff27005a
:10362000f2ff2f006110b900fbff370003ff2700f6
:10363000f7ff37001400fa00889fbe008a9fbe0083
:103640008c9fbe000004be000205be00680047005b
:103650000a90be000890be00800207000070a7001c
:103660000bf0a100304320009e02900080825200a7
:10367000b0fe2f000028e10011003d00b0fc2f003b
:103680000028e100150034001e0990008e0890000b
:103690007e0090000501b0000201d1008180d300be
:1036a0000080d3008502e800fbff3a000b00e00039
:1036b000bcff3b0060001000e0801800b9ff37003d
:1036c000f0ff2f00f1ff27000b00e000b5ff3b00eb
:1036d0000100280000002000b2ff37006000b800a1
:1036e000b0ff37004f89de00820178008202370088
:1036f0002800fa00889fbe008a9fbe008c9fbe00f3
:1037000003866b0093ff07000028a30064003a00c3
:103710000128a30067003a000008a30062003a00f5
:103720000108a30065003a001e009000be0890004a
:1037300081064000ed3fb100f4805700ee0190009b
:10374000111ab8008e099000311bb8009e09900034
:10375000311cb800511db800f48557004600070021
:10376000fe0190003a0007008b85e8003e0007004c
:103770008e09900040000700ee0190003400070021
:103780008b85e800380007008e0990004000070094
:103790009e0990001b18b800890440000a85480063
:1037a000fe019000340007008b85e8003800070018
:1037b000ee019000300007008e0990001b18b80041
:1037c000890440000a8548000a98a30008003a00ce
:1037d0000402420085824a0006034b0087834b00a7
:1037e00008044c0089844c000a054d008d06e90050
:1037f00084827200850273004c3add0085027200fb
:103800000100320015002000443ade001400b2002e
:103810004538de00cb45dd000b007000c540de0002
:10382000cb4ddd008b8070004549de00cb55dd00bf
:103830000b017100c551de000d03780019ff070070
:1038400003f0a1000cf0a70003f0a00055ff370023
:103850001b18b8008502400006834800e0834b0037
:1038600060044c00070037001b18b8000603400036
:1038700087834800faff37001b18b8008703400011
:1038800008844800e0844c0060054d0000000600fc
:103890001b18b8000804400089844800faff37006c
:1038a0000108a3003cff3a005800be005801be00ca
:1038b000e3ff37000008a30037ff3a00090478004f
:1038c000f9ff37000000000007f0a2001c013700dc
:1038d0006022b800060220000000d0008180d200e3
:1038e0000482d2008582d2000000a00002025200b1
:1038f00083825a00030031000202420083824a00a0
:103900000000a1000603e900f3ff3a0000000600f2
:10391000efff07000400be0000000600020ab90025
:10392000001bb9000200b800810042008100430082
:1039300000000600889fbe008a9fbe00300442003f
:10394000b0844a0030054b0090854b006000b10008
:103950000898be000a90be000440e10005c8e100de
:1039600006d0e10007d8e100020031006800400005
:103970001008e8004f05be004f04be00000006001e
:10398000889fbe008a9fbe003004be002005be0096
:103990000418540005985c0006185d0007985d0047
:1039a000110020000440e10005c8e10006d0e1005c
:1039b00007d8e100010039008000eb0010881000fa
:1039c0004f05be004f04be00000006001200fa00c2
:1039d000889fbe008a9fbe008c9fbe00e0b79f00fc
:1039e000f1b79f0082bf9f0093bf9f000605be00f6
:1039f0000404be000000eb00d0b79f00c0b79f00da
:103a0000b0b79f00a0b79f0090b79f000006eb00e3
:103a10005fb19700cfb09700820141003fb097009f
:103a20000200e00004003d00370007007e805700e0
:103a3000c0ff070003003700330007007e805700f7
:103a4000cfff0700dfb697000d00e0000c00350047
:103a50006fb29700ffb297000fbb97009fbb970014
:103a600010002000010020006011b8000002720068
:103a70008182720002037300838373001b000700be
:103a80000c06e80001042000810f5600e0ff3a0018
:103a90000d00e00004003d000802be000a03be0065
:103aa0007e805700a3ff07005fa897000000e0009a
:103ab00005003a001fb29700afb297003fb39700de
:103ac000cfb39700090007006fb09700ffb09700d1
:103ad0000fb997009fb997004f06be004f05be0073
:103ae0004f04be000080fa0000000600010007003d
:103af00000000600a4b79f00b5b79f00c6b79f009f
:103b0000d7b79f00000006004f09de0082817100d8
:103b1000b3b79f004f01de008180400082807000bb
:103b2000a1b79f008fb097004f09de000000400052
:103b30000200700090b79f007fa897004f01de0041
:103b4000818040008280700081b79f000d000700d7
:103b50004f3ade000000400004007000f0af9f000c
:103b6000080007000402420085824a0006034b0059
:103b700087834b00dfff07000802be000a03be0078
:103b8000000006002fb29700bfb297004fb3970016
:103b9000dfb3970000000600881f7800180020009f
:103ba000881f780089ff07008f87e9004f0478009d
:103bb00000000600801feb0084ff07008f87e900ec
:103bc00000000600889fbe008a9fbe00e00f5000e4
:103bd000e08f5800e00f5900e08f59000c003d00c5
:103be0006044b8006055b8000000540081805c005b
:103bf00002015d0083815d001800200015000700b0
:103c000008003d00180007000004eb000500370025
:103c10000004eb000f00070002003d001200070047
:103c200018002000dcff07000800e000060032005a
:103c30006022b8006033b8000000520081805a0052
:103c400002015b0083815b004f05be004f04be0094
:103c500000000600e00f5200e08f5a00e00f5b000a
:103c6000e08f5b00000006006044b8006055b800bb
:103c70000402540085825c0006035d0087835d00ba
:103c800000000600889fbe008a9fbe008c1f78003f
:103c9000e00f5000e08f5800e00f5900e08f59000e
:103ca0000d003d006044b8006055b80000005400ad
:103cb00081805c0002015d0083815d001c002000aa
:103cc0000820e10009a8e1000ab0e1000bb8e1001a
:103cd0000d003d00080037000006eb00e00f520029
:103ce000e08f5a00e00f5b00e08f5b0006003d00b4
:103cf0006044b8006055b8000402540085825c003e
:103d000006035d0087835d00aaff07000c00e0004a
:103d1000060032006022b8006033b8000000520094
:103d200081805a0002015b0083815b004f067800ae
:103d30004f05be004f04be0000000600000000005a
:103d40002800fa00889fbe008a9fbe008c9fbe009c
:103d500007067800878669000c003b0003047800a2
:103d60008704780008f0a10009f0a100840f50003a
:103d7000858f5800860f5900890f5c0003003300bf
:103d80000cf0a20001003a000cf0a100f1fd0700c8
:103d90006400e1005f003200780147006408e10040
:103da000610032006c014700748557003200be008c
:103db0001201be003a04be001a05be001e039000a8
:103dc000be0a90008503530006003d000004fd007c
:103dd0008104fd000205fd008305fd008703ea0064
:103de000050378000df8a3000400320060041400fd
:103df000e0841c0060051d00e0851d006022b80005
:103e00007d0320000d38e1008006eb000b00390037
:103e10004433dd00f300b200830173003900370042
:103e2000848272000d027800e10664008b85d10067
:103e30000a85d3008984d3000884d3008703e9006e
:103e4000f7ff3b0008004000898048000a01490054
:103e50008b81490004003b0060001000e0801800e6
:103e600060011900e08119000358a3000900320025
:103e70008d82720084827200610260008301d10031
:103e80000281d3008180d3000080d3000603e800c4
:103e90001b0037000348a30017003a000600e000ab
:103ea000170034000603e9000d00a30000004800dd
:103eb0008180480002014900838149000348a30032
:103ec0000f003a000600e000090034000603e90094
:103ed00000004000818048000201490083814900c0
:103ee00001003a000003eb000348a300f5ff320095
:103ef0006022b8000200370084827200618266008e
:103f000068fd070003f0a1000cf0a70003f0a0007b
:103f1000a4fd3700640147006408e10002003a0094
:103f20000df8a3009cfd3a003200be001201be0055
:103f30009cfd370000000000889fbe008a9fbe00e5
:103f40008c9fbe000404be000605be00809fbe001c
:103f5000829fbe002f000700040678000800be0004
:103f60000a01be002b000700840678004f03be0044
:103f70004f02be008d4f76007fb0970013003300d4
:103f8000f0ff2f008b8f6b0006003b000d066600d4
:103f90000c00a7000a00370007f0a6001000200060
:103fa0000a003700880f5200898f5a008a0f5b0081
:103fb0008b8f5b00030039001000200001003e00e1
:103fc0000000200007f0a7000000ea004f06be0036
:103fd0004f05be004f04be0000000600e482400012
:103fe0001078a30007003200640240001178a3009b
:103ff0003400be001401be00040032000330a700ec
:10400000000006003500be001501be000330a00010
:104010000000060005ff270005826100070032004e
:104020000428e1000100320024000500060007001a
:1040300001003a00440005000408050002000700e2
:10404000f9ff3a00140005006f82610081027000e0
:104050008502710085027200000006008000780071
:104060005002be005003be004439de00f700b2002b
:10407000f37f200003016100090032000218e10013
:1040800016003a008501720083017300838173007a
:104090000008200015003a004000200013003700ff
:1040a00085017200830173008381730005003a006b
:1040b00004a8be0006a8be00100020000b003700b8
:1040c0000201e9000402420085824a0006034b0017
:1040d00087834b000748a300f9ff32000740a00088
:1040e00004a8be0006a8be002000200080009800a2
:1040f0009200980000000600881f780003047800f2
:104100000300e00007003d0060001000e0801800a0
:1041100060011900e081190002003b0001f02d0050
:10412000030037000400070008f0a70003f0a00018
:104130004f04780000000600889fbe0000827000d7
:104140000402710004827100240032003643200012
:10415000c50020008383cf000a0039000541b1006b
:104160008283cf00070039000541b1008183cf0071
:10417000040039000541b1008083cf0001003900ff
:104180000541b10085c353006022b800120032001f
:104190000a003b0084827200610260008301d1004a
:1041a0000281d3008180d3000080d3000603e800a1
:1041b0008743e800f7ff3a0007003700000040009f
:1041c0008180480002014900838149000603e9001b
:1041d0008743e900f9ff3a00b2fc07004f04be0034
:0441e00000000600d5
:020000040000fa
:1041e4004c450000442000004f4e0000004c0000ed
:1041f40045440000204f000046460000004c0000eb
:104204004544000020530000574900005443000077
:104214004800000045430000484f00002000000013
:104224004652000045510000200000005365000084
:104234006e7300006f7200003000000053650000d0
:104244006e7300006f7200003100000053650000bf
:104254006e7300006f720000320000000a0000005c
:1042640025660000002c000000250000640000000a
:020000040000fa
:104274000e00fa00004f78001207980023079800f8
:104284003407980045079800560798006707980078
:104294001eb89700aeb89700809fbe003eb8970046
:1042a400ceb89700809fbe005e039000ee0390009e
:1042b4003e029000ce0290001e019000ae019000dc
:1042c4001e4078000f000700e88757001e80fb009f
:1042d400c200dd00a09b2000008140006000b80007
:1042e4000089be001e80fb00c200dd00a09c2000ef
:1042f400008140006000b8000089be000080fa0020
:10430400000006000e00fa00004f78001207980023
:10431400230798003407980045079800560798002b
:10432400670798001e80fb00c200dd00a0962000f5
:10433400008040001e019000ae0190000288be0083
:104344001e80fb00c200dd00a0972000008040001a
:104354003e019000ce0190000288be001e80fb004a
:10436400c200dd00a0982000008040005e019000a3
:10437400ee0190000288be001e80fb00c200dd003a
:10438400a0992000008040001eb99700aeb99700a4
:104394000288be001e80fb00c200dd00a09a20003f
:1043a400008040003eb99700ceb997000288be0055
:1043b4000080fa00000006000e00fa00889fbe008c
:1043c4008a1f7800004f98005207980063079800ee
:1043d4006000b80020079800310798000e4890004c
:1043e4000084fb000e4890000080fb00c200dd004a
:1043f400a09b2000008040001000be005e019000e1
:10440400ee0190005ef10700c241dd00a29b200096
:10441400028141000089be000e4890000080fb002c
:10442400c200dd00a0962000008040001000be0005
:104434005e019000ee0190008af207000004be00c5
:104444000e4890000080fb00c200dd00a09b20000d
:10445400008040001002be000e4890000080fb0067
:10446400c200dd00a0972000008040001000be00c4
:104474000001be000400be007af207000001be0085
:104484000800be003ef10700008fbe000e489000f9
:104494000080fb00c200dd00a097200000804000e7
:1044a4001000be006011b80019f207000000e0001f
:1044b4006f0032000e4890000080fb00c200dd0057
:1044c400a0992000008040001000be0018c0b30076
:1044d4001e01be00c9f107000000e0000100350024
:1044e4000044eb000804e0002a0032000e4890006b
:1044f4000085fb000e4890000080fb00c200dd0038
:10450400a0992000008040001004be000e489000d6
:104514000080fb00c200dd00a09620000080400067
:104524001000be005e019000ee0190004df2070005
:104534000001be000800be0010f107000002be002a
:104544000e4890000080fb00c200dd00a097200010
:10455400008040001000be000001be000400be0048
:1045640064f10700c251dd00a29b200002814100da
:104574000089be000e4890000080fb00c200dd00f0
:10458400a099200000804000301f78002017780098
:10459400370037000e4890000080fb00c200dd00a9
:1045a400a09a2000008040001000be0018c0b30094
:1045b4001e01be0093f107000000e00001003c0072
:1045c4000044eb000804e000290032000e4890008b
:1045d4000085fb000e4890000080fb00c200dd0057
:1045e400a09a2000008040001004be000e489000f5
:1045f4000080fb00c200dd00a09620000080400087
:104604001000be005e019000ee01900015f207005c
:104614000001be000800be00d8f007000002be0082
:104624000e4890000080fb00c200dd00a09720002f
:10463400008040001000be000001be000400be0067
:104644002cf10700c251dd00a29b20000281410031
:104654000089be000e4890000080fb00c200dd000f
:10466400a09a200000804000301f780020177800b6
:104674000e4890000080fb00c200dd00a09c2000da
:10468400008040001000be000001be005e009000eb
:10469400ee009000b9f007000002be000e48900042
:1046a4000080fb00c200dd00a098200000804000d4
:1046b4001000be000001be000400be00e9f10700c6
:1046c4001e01be00aef007002007980031079800d5
:1046d4000e4890000080fb00c200dd00a09c20007a
:1046e400008040005e019000ee0190000288be0050
:1046f4002e009000be0090004f0578004f04be00cd
:104704000080fa00000006000400fa00008fbe00da
:10471400204180003141800092ff2000930c24004e
:10472400d0f107001e01be00cef1070001f2070020
:104734000080fa00000006000600fa00881f7800d6
:10474400404180000000e000e6003200204180008b
:1047540031418000a2702d0033c2230088f007008d
:104764002041880031418800484180002041800078
:10477400314180000200200003272400ddf00700ff
:104784000002be0050418000614180000001be0073
:104794000400be00b3f107001cf10700000078001c
:1047a4000080e80000004000000044009000780011
:1047b400210798006000b800008fbe002e00900012
:1047c4000000e00001003a002828ef00ae0090004d
:1047d40000002800808f5000b00032002e009000ae
:1047e40061006000004078000004e000070032002f
:1047f400b047210091262400c3ff07000001be003a
:104804001e00be005ef00700008fbe002e00900068
:10481400620060000000e00007003200305c2f00fe
:1048240061272400b8ff07000001be001e00be007f
:1048340053f00700008fbe002e009000640060005b
:104844000000e00007003200c01e2d0021282400d3
:10485400adff07000001be001e00be0048f00700c7
:10486400008fbe002e009000680060000000e00091
:1048740007003200a0992900a1282400a2ff070004
:104884000001be001e00be003df00700008fbe0008
:104894002e009000700060000000e000070032006d
:1048a400a0702d002129240097ff07000001be00fd
:1048b4001e00be0032f00700008fbe00ae00900064
:1048c40000022000008060000000e00007003200c9
:1048d400c0f52800b12924008bff07000001be00a9
:1048e4001e00be0026f00700008fbe00ae00900040
:1048f40000042000008060000000e0000700320097
:10490400c01e2d00412a24007fff07000001be00c5
:104914001e00be001af00700008fbe00ae0090001b
:1049240000082000008060000000e0000700320062
:1049340080eb2900e12a240073ff07000001be0078
:104944001e00be000ef00700008fbe00ae009000f7
:1049540000102000008060000000e000070032002a
:1049640000002000912b240067ff07000001be0017
:104974001e00be0002f00700008fbe00ae009000d3
:1049840000202000008060000000e00007003200ea
:1049940000002000412c24005bff07000001be0042
:1049a4001e00be00f6ef0700008fbe00ae009000b0
:1049b40000402000008060000000e000070032009a
:1049c400608f2a00f12c24004fff07000001be0075
:1049d4001e00be00eaef0700008fbe00ae0090008c
:1049e40000802000008060000000e000070032002a
:1049f40000002000c12d240043ff07000001be0079
:104a04001e00be00deef0700008fbe00ae00900067
:104a140000002100008060000000e0000700320078
:104a2400b0472100912e240037ff07000001be008b
:104a34001e00be00d2ef0700008fbe00ae00900043
:104a440000002200008060000000e0000700320047
:104a5400400a2f00612f24002bff07000001be0035
:104a64001e00be00c6ef0700008fbe00ae0090001f
:104a740000002400008060000000e0000700320015
:104a8400c0f52c00213024001fff07000001be00e8
:104a94001e00be00baef0700008fbe000200200017
:104aa40003f023001e00be00eef007000002be006b
:104ab400b0418000c14180000001be000400be007e
:104ac4000cf007000200200003f02300acef070005
:104ad400008fbe001e01be0020c0b3005b020700b1
:104ae40001003700000000004f0478000080fa0045
:104af400000006000200fa00000f78001e00780093
:104b04000000e00003003200e10f50000300320017
:104b1400040037000000eb0003003700608420002d
:104b2400010037000000eb000080fa0000000600de
:104b34000400fa00100798001e009000edff070023
:104b4400000f78006000b8002041880031418800df
:104b54009e00780041418800404180000000e00050
:104b64000d0032004041800010007800cf80de004c
:104b740062f0070050418800614188004041800094
:104b84000080e80010007800cf80de005bf00700b2
:104b9400b0418800c14188000080fa00000006008e
:104ba4000200fa00004f7800114798001e40900060
:104bb4000000fb000000e0001d003200e10f500087
:104bc40003003200e10f40000d00320029003700dd
:104bd4001e407800e14f500003003a00cd62a80067
:104be400cda2a900230037001e4078000004e00095
:104bf4001b003a00c542a800c4e2a9001d0037000a
:104c04001e407800e14f500003003a00cd62a90035
:104c1400cda2a800170037001e4078000004e00071
:104c240011003a00c542a900c4e2a80011003700ef
:104c34001e407800e14f500003003a00cd62a90005
:104c4400cda2a9000b0037001e4078000004e0004c
:104c540007003a00c542a900c4e2a90005003700d4
:104c640000000000030037000000000001003700ce
:104c7400000000000080fa00000006000600fa00b0
:104c8400004f780012079800230798001e80fb004d
:104c9400018120004200dd00008040001e019000e0
:104ca400ae0190000288be000080fa0000000600f9
:104cb4000600fa00881f7800004f78001207980059
:104cc4002307980018c0b3006011b8001e009000bc
:104cd400ae009000cbef07000000e00001003c00b4
:104ce4000044eb000804e0000800320011c0b300e7
:104cf4001e407800aaff07001e019000ae0190003c
:104d040010c0b300d10107000900370080c0eb00d8
:104d14001e407800a2ff07001e009000ae00900025
:104d240001f0a2000001be0010c0b300c7010700db
:104d34004f0478000080fa00000006000200fa0028
:104d4400004f78001e80fb00018020004200dd003f
:104d5400008040001000be000080fa000000060041
:104d64000e00fa000000eb00000f78003a00370054
:104d74001e007800004078003304070010079800f4
:104d840021079800818020001e0078004200dd0089
:104d9400008040001000be001e019000ae01900093
:104da4000000510081805900d4ef0700225c2f00dd
:104db400831a24004fef0700038020001e017800af
:104dc4004211dd00028141000089be008180200083
:104dd4001e0078004200dd00008040001e019000ab
:104de400ae0190000288be00018120001e00780000
:104df4004200dd00008040001002be00018020005f
:104e04001e0078004200dd00008040001000be005b
:104e14000001be000400be00d8ee07003007980071
:104e2400410798001e007800004078003e01900081
:104e3400ce01900060fd07005007980061079800bc
:104e44001e007800004078005e019000ee019000a2
:104e5400060007001e0fe8001e007800e10f500056
:104e6400c3ff34000080fa00000006000600fa00c8
:104e7400881f7800004f78001207980023079800d5
:104e84001e80fb00018120004200dd000080400004
:104e94001000be006011b80058ef07000000e000e9
:104ea40010003a008040eb001e4078003cff0700f1
:104eb4001e4078000004e00003003a006011b800ce
:104ec4000040eb00610107001e407800e14f5000f4
:104ed40035003a006011b80010c0b3005b01070050
:104ee4003100370018c0b3006011b8001e009000f4
:104ef400ae00900043ef07000000e00001003c001a
:104f04000044eb000804e0001200320011c0b300ba
:104f14001e40780022ff07001e4078000004e000d5
:104f240004003a001e019000ae0190000040eb0026
:104f3400460107001e407800e14f50001a003a0075
:104f44001e019000ae01900010c0b3003f010700a5
:104f54001500370080c0eb001e40780010ff0700ea
:104f64001e4078000004e00006003a001e00900095
:104f7400ae00900001f0a2000001be000040eb0072
:104f8400320107001e407800e14f500006003a004d
:104f94001e009000ae00900001f0a2000001be00cf
:104fa40010c0b300290107004f0478000080fa0004
:044fb40000000600f3
:020000040000fa
:104fb8006a09000070000000000000007c0a000080
:104fc8003a00000000000000420800000200000053
:104fd80000000000c0470000400000000000000082
:104fe80046080000a600000002000000f0000100d2
:104ff8000004000000801000000080004000000055
:105008008080000000800000020002000080000094
:1050180080000200000200008000800000080000fc
:1050280080000800008000000800800000080000e0
:105038008000020000020000020002000080000060
:105048008000800000800000080080000008000048
:1050580080000800008000000800800000020000b6
:1050680002000200000200008000800000800000b2
:105078008080000000808000000080008000000028
:105088008080000000804000004000000080000098
:1050980080400000400000008000800010000000f8
:1050a8008010000000801000000080001000000048
:1050b80080040000040004000004000000800000d8
:1050c800800080000080000000000000240800002c
:1050d8000a0000000000000036080000040000007c
:1050e80002000000000080003f00000000080000ef
:1050f8001800000000000000120b00000c00000067
:1051080002000000cdcc0c003fcdcc000c3f0000cd
:1051180000803f002e08000008000000000000008a
:10512800ec0800007e00000002000000ff0b9d005c
:105138000a58090011083e0007680600d205440015
:1051480005e2040082043a0004a603004303f500c4
:1051580002ac020089025700022602000502da00aa
:1051680001c10100000080003f000000c03f0000b6
:105178000000400000002000400000004040000007
:1051880000604000000080004000000090400000e7
:1051980000a040000000b00040000000c040000037
:1051a80000e0400000000000410000001041000045
:1051b8000020410000003000410000004041000094
:1051c80000504100000060004100000070410000f4
:1051d80000804100180800000c00000000000000da
:1051e8003a0800000400000002000000000000006f
:1051f8003f000000d80a0000200000000000000066
:105208003e08000004000000000000004408000000
:105218000200000000000000320a00004a000000fe
:1052280002000000303132003334350036373800a0
:10523800396162006364650066676800696a6b00cb
:105248006c6d6e006f707100727374007576770004
:1052580078797a0000000000211511000e0d0c006d
:105268000b0b0a000a0909000909090008080800c7
:1052780008080800080707000707070007070700ce
:105288000707070007070000f80a00001a000000d7
:1052980002000000686a6c00747a4c00000001008b
:1052a80000020000040008000010000000002000b8
:1052b8002b2d230030000000da0900005800000000
:1052c800020000006e616e00004e41004e00690051
:1052d8006e660000494e4600000000000000000015
:1052e80000244000000000000000000059400000b9
:1052f800000000000088c300400000000000840097
:10530800d79741000080e0003779c3004143170078
:105318006e05b500b5b8930046f5f9003fe90300fe
:105328004f384d00321d3000f9487700825a3c0052
:10533800bf737f00dd4f1500750000001e0b0000d5
:10534800020000000200000030000000b60a000061
:1053580022000000020000003031320033343500f2
:105368003637380039414200434445004600300092
:105378003132330034353600373839006162630022
:0c538800646566000000000000000000ea
:020000040000fa
:105394000000fa00c1e1a900c1e5a900c881a90083
:1053a400c821a900c841a900c885a900c805a90049
:1053b400010e800030ff2f00008060000020a0005c
:1053c400000e8800010e8000f0f02f0000806000c5
:1053d400000e8800c1a1a800012e800030ff2f001c
:1053e400008060000020a000002e8800012e8000b4
:1053f400f0f02f0000806000002e8800c1a5a800f6
:10540400f0702200200e8800f0702200202e880008
:10541400d621ef00d821ef00da21ef00d625ef00e6
:10542400c901a800c921a800c941a800c905a8004c
:10543400c8c1a800c8a1a900c805a800c1e1a80066
:10544400c1e5a8000080fa00000006000600fa008a
:10545400881f7800004f78001207980023079800ef
:105464001e80fb00c200dd0020b12000008040004f
:105474001000be0018c0b3001e019000ae019000e1
:10548400deed07000000e000010035000044eb0001
:105494000804e000070032001e80fb00c200dd00ab
:1054a40020b12000008040001001be0012079800c7
:1054b4002307980018c0b3006011b8001e009000c4
:1054c400ae009000cded07000000e00001003500c3
:1054d4000044eb000804e000030032006000b80060
:1054e40010079800210798001e80fb00e10f500070
:1054f40005003200e20f50001b0032000000e00003
:105504000d00320024003700200e80000000e80067
:10551400000040008000eb00fbed07001e0190003e
:10552400ae0190004fee0700d9ed070000007800af
:10553400d00e880018003700202e80000000e800fc
:10554400000040008000eb00efed07001e0190001a
:10555400ae01900043ee0700cded07000000780097
:10556400b02e88000c003700202e80000000e800d8
:10557400000040008000eb00e3ed07001e019000f6
:10558400ae01900037ee0700c1ed0700000078007f
:10559400b02e8800000000004f0478000080fa005c
:1055a400000006000200fa0021e3a9000080eb00dd
